{
  "_format": "hh-sol-artifact-1",
  "contractName": "MessageProxyForSchain",
  "sourceName": "contracts/schain/MessageProxyForSchain.sol",
  "abi": [
    {
      "anonymous": false,
      "inputs": [
        {
          "indexed": false,
          "internalType": "uint256",
          "name": "oldValue",
          "type": "uint256"
        },
        {
          "indexed": false,
          "internalType": "uint256",
          "name": "newValue",
          "type": "uint256"
        }
      ],
      "name": "GasLimitWasChanged",
      "type": "event"
    },
    {
      "anonymous": false,
      "inputs": [
        {
          "indexed": true,
          "internalType": "bytes32",
          "name": "dstChainHash",
          "type": "bytes32"
        },
        {
          "indexed": true,
          "internalType": "uint256",
          "name": "msgCounter",
          "type": "uint256"
        },
        {
          "indexed": true,
          "internalType": "address",
          "name": "srcContract",
          "type": "address"
        },
        {
          "indexed": false,
          "internalType": "address",
          "name": "dstContract",
          "type": "address"
        },
        {
          "indexed": false,
          "internalType": "bytes",
          "name": "data",
          "type": "bytes"
        }
      ],
      "name": "OutgoingMessage",
      "type": "event"
    },
    {
      "anonymous": false,
      "inputs": [
        {
          "indexed": true,
          "internalType": "uint256",
          "name": "msgCounter",
          "type": "uint256"
        },
        {
          "indexed": false,
          "internalType": "bytes",
          "name": "message",
          "type": "bytes"
        }
      ],
      "name": "PostMessageError",
      "type": "event"
    },
    {
      "anonymous": false,
      "inputs": [
        {
          "indexed": true,
          "internalType": "bytes32",
          "name": "role",
          "type": "bytes32"
        },
        {
          "indexed": true,
          "internalType": "bytes32",
          "name": "previousAdminRole",
          "type": "bytes32"
        },
        {
          "indexed": true,
          "internalType": "bytes32",
          "name": "newAdminRole",
          "type": "bytes32"
        }
      ],
      "name": "RoleAdminChanged",
      "type": "event"
    },
    {
      "anonymous": false,
      "inputs": [
        {
          "indexed": true,
          "internalType": "bytes32",
          "name": "role",
          "type": "bytes32"
        },
        {
          "indexed": true,
          "internalType": "address",
          "name": "account",
          "type": "address"
        },
        {
          "indexed": true,
          "internalType": "address",
          "name": "sender",
          "type": "address"
        }
      ],
      "name": "RoleGranted",
      "type": "event"
    },
    {
      "anonymous": false,
      "inputs": [
        {
          "indexed": true,
          "internalType": "bytes32",
          "name": "role",
          "type": "bytes32"
        },
        {
          "indexed": true,
          "internalType": "address",
          "name": "account",
          "type": "address"
        },
        {
          "indexed": true,
          "internalType": "address",
          "name": "sender",
          "type": "address"
        }
      ],
      "name": "RoleRevoked",
      "type": "event"
    },
    {
      "inputs": [],
      "name": "CHAIN_CONNECTOR_ROLE",
      "outputs": [
        {
          "internalType": "bytes32",
          "name": "",
          "type": "bytes32"
        }
      ],
      "stateMutability": "view",
      "type": "function"
    },
    {
      "inputs": [],
      "name": "CONSTANT_SETTER_ROLE",
      "outputs": [
        {
          "internalType": "bytes32",
          "name": "",
          "type": "bytes32"
        }
      ],
      "stateMutability": "view",
      "type": "function"
    },
    {
      "inputs": [],
      "name": "DEFAULT_ADMIN_ROLE",
      "outputs": [
        {
          "internalType": "bytes32",
          "name": "",
          "type": "bytes32"
        }
      ],
      "stateMutability": "view",
      "type": "function"
    },
    {
      "inputs": [],
      "name": "EXTRA_CONTRACT_REGISTRAR_ROLE",
      "outputs": [
        {
          "internalType": "bytes32",
          "name": "",
          "type": "bytes32"
        }
      ],
      "stateMutability": "view",
      "type": "function"
    },
    {
      "inputs": [],
      "name": "MAINNET_HASH",
      "outputs": [
        {
          "internalType": "bytes32",
          "name": "",
          "type": "bytes32"
        }
      ],
      "stateMutability": "view",
      "type": "function"
    },
    {
      "inputs": [],
      "name": "MESSAGES_LENGTH",
      "outputs": [
        {
          "internalType": "uint256",
          "name": "",
          "type": "uint256"
        }
      ],
      "stateMutability": "view",
      "type": "function"
    },
    {
      "inputs": [
        {
          "internalType": "string",
          "name": "chainName",
          "type": "string"
        }
      ],
      "name": "addConnectedChain",
      "outputs": [],
      "stateMutability": "nonpayable",
      "type": "function"
    },
    {
      "inputs": [
        {
          "internalType": "bytes32",
          "name": "",
          "type": "bytes32"
        }
      ],
      "name": "connectedChains",
      "outputs": [
        {
          "internalType": "uint256",
          "name": "incomingMessageCounter",
          "type": "uint256"
        },
        {
          "internalType": "uint256",
          "name": "outgoingMessageCounter",
          "type": "uint256"
        },
        {
          "internalType": "bool",
          "name": "inited",
          "type": "bool"
        }
      ],
      "stateMutability": "view",
      "type": "function"
    },
    {
      "inputs": [],
      "name": "gasLimit",
      "outputs": [
        {
          "internalType": "uint256",
          "name": "",
          "type": "uint256"
        }
      ],
      "stateMutability": "view",
      "type": "function"
    },
    {
      "inputs": [
        {
          "internalType": "string",
          "name": "fromSchainName",
          "type": "string"
        }
      ],
      "name": "getIncomingMessagesCounter",
      "outputs": [
        {
          "internalType": "uint256",
          "name": "",
          "type": "uint256"
        }
      ],
      "stateMutability": "view",
      "type": "function"
    },
    {
      "inputs": [
        {
          "internalType": "string",
          "name": "targetSchainName",
          "type": "string"
        }
      ],
      "name": "getOutgoingMessagesCounter",
      "outputs": [
        {
          "internalType": "uint256",
          "name": "",
          "type": "uint256"
        }
      ],
      "stateMutability": "view",
      "type": "function"
    },
    {
      "inputs": [
        {
          "internalType": "bytes32",
          "name": "role",
          "type": "bytes32"
        }
      ],
      "name": "getRoleAdmin",
      "outputs": [
        {
          "internalType": "bytes32",
          "name": "",
          "type": "bytes32"
        }
      ],
      "stateMutability": "view",
      "type": "function"
    },
    {
      "inputs": [
        {
          "internalType": "bytes32",
          "name": "role",
          "type": "bytes32"
        },
        {
          "internalType": "uint256",
          "name": "index",
          "type": "uint256"
        }
      ],
      "name": "getRoleMember",
      "outputs": [
        {
          "internalType": "address",
          "name": "",
          "type": "address"
        }
      ],
      "stateMutability": "view",
      "type": "function"
    },
    {
      "inputs": [
        {
          "internalType": "bytes32",
          "name": "role",
          "type": "bytes32"
        }
      ],
      "name": "getRoleMemberCount",
      "outputs": [
        {
          "internalType": "uint256",
          "name": "",
          "type": "uint256"
        }
      ],
      "stateMutability": "view",
      "type": "function"
    },
    {
      "inputs": [
        {
          "internalType": "bytes32",
          "name": "role",
          "type": "bytes32"
        },
        {
          "internalType": "address",
          "name": "account",
          "type": "address"
        }
      ],
      "name": "grantRole",
      "outputs": [],
      "stateMutability": "nonpayable",
      "type": "function"
    },
    {
      "inputs": [
        {
          "internalType": "bytes32",
          "name": "role",
          "type": "bytes32"
        },
        {
          "internalType": "address",
          "name": "account",
          "type": "address"
        }
      ],
      "name": "hasRole",
      "outputs": [
        {
          "internalType": "bool",
          "name": "",
          "type": "bool"
        }
      ],
      "stateMutability": "view",
      "type": "function"
    },
    {
      "inputs": [
        {
          "internalType": "contract KeyStorage",
          "name": "blsKeyStorage",
          "type": "address"
        },
        {
          "internalType": "string",
          "name": "schainName",
          "type": "string"
        }
      ],
      "name": "initialize",
      "outputs": [],
      "stateMutability": "nonpayable",
      "type": "function"
    },
    {
      "inputs": [
        {
          "internalType": "uint256",
          "name": "newGasLimit",
          "type": "uint256"
        }
      ],
      "name": "initializeMessageProxy",
      "outputs": [],
      "stateMutability": "nonpayable",
      "type": "function"
    },
    {
      "inputs": [
        {
          "internalType": "string",
          "name": "schainName",
          "type": "string"
        }
      ],
      "name": "isConnectedChain",
      "outputs": [
        {
          "internalType": "bool",
          "name": "",
          "type": "bool"
        }
      ],
      "stateMutability": "view",
      "type": "function"
    },
    {
      "inputs": [
        {
          "internalType": "string",
          "name": "schainName",
          "type": "string"
        },
        {
          "internalType": "address",
          "name": "contractAddress",
          "type": "address"
        }
      ],
      "name": "isContractRegistered",
      "outputs": [
        {
          "internalType": "bool",
          "name": "",
          "type": "bool"
        }
      ],
      "stateMutability": "view",
      "type": "function"
    },
    {
      "inputs": [],
      "name": "keyStorage",
      "outputs": [
        {
          "internalType": "contract KeyStorage",
          "name": "",
          "type": "address"
        }
      ],
      "stateMutability": "view",
      "type": "function"
    },
    {
      "inputs": [
        {
          "internalType": "string",
          "name": "fromChainName",
          "type": "string"
        },
        {
          "internalType": "uint256",
          "name": "startingCounter",
          "type": "uint256"
        },
        {
          "components": [
            {
              "internalType": "address",
              "name": "sender",
              "type": "address"
            },
            {
              "internalType": "address",
              "name": "destinationContract",
              "type": "address"
            },
            {
              "internalType": "bytes",
              "name": "data",
              "type": "bytes"
            }
          ],
          "internalType": "struct MessageProxy.Message[]",
          "name": "messages",
          "type": "tuple[]"
        },
        {
          "components": [
            {
              "internalType": "uint256[2]",
              "name": "blsSignature",
              "type": "uint256[2]"
            },
            {
              "internalType": "uint256",
              "name": "hashA",
              "type": "uint256"
            },
            {
              "internalType": "uint256",
              "name": "hashB",
              "type": "uint256"
            },
            {
              "internalType": "uint256",
              "name": "counter",
              "type": "uint256"
            }
          ],
          "internalType": "struct MessageProxy.Signature",
          "name": "signature",
          "type": "tuple"
        }
      ],
      "name": "postIncomingMessages",
      "outputs": [],
      "stateMutability": "nonpayable",
      "type": "function"
    },
    {
      "inputs": [
        {
          "internalType": "bytes32",
          "name": "targetChainHash",
          "type": "bytes32"
        },
        {
          "internalType": "address",
          "name": "targetContract",
          "type": "address"
        },
        {
          "internalType": "bytes",
          "name": "data",
          "type": "bytes"
        }
      ],
      "name": "postOutgoingMessage",
      "outputs": [],
      "stateMutability": "nonpayable",
      "type": "function"
    },
    {
      "inputs": [
        {
          "internalType": "string",
          "name": "schainName",
          "type": "string"
        },
        {
          "internalType": "address",
          "name": "extraContract",
          "type": "address"
        }
      ],
      "name": "registerExtraContract",
      "outputs": [],
      "stateMutability": "nonpayable",
      "type": "function"
    },
    {
      "inputs": [
        {
          "internalType": "address",
          "name": "extraContract",
          "type": "address"
        }
      ],
      "name": "registerExtraContractForAll",
      "outputs": [],
      "stateMutability": "nonpayable",
      "type": "function"
    },
    {
      "inputs": [
        {
          "internalType": "bytes32",
          "name": "",
          "type": "bytes32"
        },
        {
          "internalType": "address",
          "name": "",
          "type": "address"
        }
      ],
      "name": "registryContracts",
      "outputs": [
        {
          "internalType": "bool",
          "name": "",
          "type": "bool"
        }
      ],
      "stateMutability": "view",
      "type": "function"
    },
    {
      "inputs": [
        {
          "internalType": "string",
          "name": "schainName",
          "type": "string"
        }
      ],
      "name": "removeConnectedChain",
      "outputs": [],
      "stateMutability": "nonpayable",
      "type": "function"
    },
    {
      "inputs": [
        {
          "internalType": "string",
          "name": "schainName",
          "type": "string"
        },
        {
          "internalType": "address",
          "name": "extraContract",
          "type": "address"
        }
      ],
      "name": "removeExtraContract",
      "outputs": [],
      "stateMutability": "nonpayable",
      "type": "function"
    },
    {
      "inputs": [
        {
          "internalType": "address",
          "name": "extraContract",
          "type": "address"
        }
      ],
      "name": "removeExtraContractForAll",
      "outputs": [],
      "stateMutability": "nonpayable",
      "type": "function"
    },
    {
      "inputs": [
        {
          "internalType": "bytes32",
          "name": "role",
          "type": "bytes32"
        },
        {
          "internalType": "address",
          "name": "account",
          "type": "address"
        }
      ],
      "name": "renounceRole",
      "outputs": [],
      "stateMutability": "nonpayable",
      "type": "function"
    },
    {
      "inputs": [
        {
          "internalType": "bytes32",
          "name": "role",
          "type": "bytes32"
        },
        {
          "internalType": "address",
          "name": "account",
          "type": "address"
        }
      ],
      "name": "revokeRole",
      "outputs": [],
      "stateMutability": "nonpayable",
      "type": "function"
    },
    {
      "inputs": [],
      "name": "schainHash",
      "outputs": [
        {
          "internalType": "bytes32",
          "name": "",
          "type": "bytes32"
        }
      ],
      "stateMutability": "view",
      "type": "function"
    },
    {
      "inputs": [
        {
          "internalType": "uint256",
          "name": "newGasLimit",
          "type": "uint256"
        }
      ],
      "name": "setNewGasLimit",
      "outputs": [],
      "stateMutability": "nonpayable",
      "type": "function"
    },
    {
      "inputs": [
        {
          "internalType": "bytes4",
          "name": "interfaceId",
          "type": "bytes4"
        }
      ],
      "name": "supportsInterface",
      "outputs": [
        {
          "internalType": "bool",
          "name": "",
          "type": "bool"
        }
      ],
      "stateMutability": "view",
      "type": "function"
    },
    {
      "inputs": [
        {
          "components": [
            {
              "internalType": "bytes32",
              "name": "dstChain",
              "type": "bytes32"
            },
            {
              "internalType": "uint256",
              "name": "msgCounter",
              "type": "uint256"
            },
            {
              "internalType": "address",
              "name": "srcContract",
              "type": "address"
            },
            {
              "internalType": "address",
              "name": "dstContract",
              "type": "address"
            },
            {
              "internalType": "bytes",
              "name": "data",
              "type": "bytes"
            }
          ],
          "internalType": "struct MessageProxyForSchain.OutgoingMessageData",
          "name": "message",
          "type": "tuple"
        }
      ],
      "name": "verifyOutgoingMessageData",
      "outputs": [
        {
          "internalType": "bool",
          "name": "isValidMessage",
          "type": "bool"
        }
      ],
      "stateMutability": "view",
      "type": "function"
    }
  ],
  "bytecode": "0x608060405234801561001057600080fd5b50613723806100206000396000f3fe608060405234801561001057600080fd5b50600436106102115760003560e01c80639010d07c11610125578063cab010c9116100ad578063f2f636051161007c578063f2f636051461050b578063f399e22e1461051e578063f68016b714610531578063f79f79541461053a578063f8c88a161461054d57600080fd5b8063cab010c914610483578063d547741f14610496578063e356a6f9146104a9578063e6ab8403146104bc57600080fd5b8063a217fddf116100f4578063a217fddf14610426578063a8bb1b7d1461042e578063bbc4e8c214610441578063bdb40cb014610468578063ca15c8731461047057600080fd5b80639010d07c146103c257806391d14854146103ed5780639448920214610400578063999ab9aa1461041357600080fd5b80633cdd2cc3116101a857806367ec60201161017757806367ec6020146103485780636e2f37b01461035b57806377fe0f311461036e5780637aa38a7c146103815780637c5ad80c1461039457600080fd5b80633cdd2cc3146102fa5780634d2038591461030d578063523c8ab614610320578063603e5d131461033557600080fd5b80632f2ff15d116101e45780632f2ff15d146102b657806336568abe146102cb5780633b597ffe146102de5780633b690b6b146102f157600080fd5b806301ffc9a71461021657806313c522601461023e578063248a9ca31461026157806328c5e18214610284575b600080fd5b610229610224366004612d5c565b610560565b60405190151581526020015b60405180910390f35b6102536000805160206136ce83398151915281565b604051908152602001610235565b61025361026f366004612c99565b60009081526065602052604090206001015490565b6102536040516613585a5b9b995d60ca1b60208201526027016040516020818303038152906040528051906020012081565b6102c96102c4366004612cb2565b61058b565b005b6102c96102d9366004612cb2565b6105b2565b6102c96102ec366004612c99565b6105d4565b61025360cd5481565b6102c9610308366004612f26565b61069f565b6102c961031b366004612c5f565b61078d565b61025360008051602061366e83398151915281565b6102c9610343366004612e6c565b61088f565b610253610356366004612dd5565b610ac3565b6102c9610369366004612c99565b610b3c565b61025361037c366004612dd5565b610c1a565b61022961038f366004612fe3565b610cc0565b6102296103a2366004612cb2565b60ca60209081526000928352604080842090915290825290205460ff1681565b6103d56103d0366004612d3a565b610cfa565b6040516001600160a01b039091168152602001610235565b6102296103fb366004612cb2565b610d19565b6102c961040e366004612ce2565b610d44565b610229610421366004612f26565b610dfa565b610253600081565b6102c961043c366004612c5f565b610e43565b6102537f96e3fc3be15159903e053027cff8a23f39a990e0194abcd8ac1cf1b355b8b93c81565b610253600a81565b61025361047e366004612c99565b610f1a565b6102c9610491366004612f5a565b610f31565b6102c96104a4366004612cb2565b6110f4565b6102296104b7366004612e16565b6110fe565b6104ee6104ca366004612c99565b60c96020526000908152604090208054600182015460029092015490919060ff1683565b604080519384526020840192909252151590820152606001610235565b6102c9610519366004612dd5565b61118c565b6102c961052c366004612d86565b611214565b61025360cb5481565b60cc546103d5906001600160a01b031681565b6102c961055b366004612f5a565b61135b565b60006001600160e01b03198216635a05180f60e01b1480610585575061058582611457565b92915050565b610595828261148c565b60008281526097602052604090206105ad90826114b2565b505050565b6105bc82826114c7565b60008281526097602052604090206105ad9082611541565b6105fe7f96e3fc3be15159903e053027cff8a23f39a990e0194abcd8ac1cf1b355b8b93c33610d19565b61065e5760405162461bcd60e51b815260206004820152602660248201527f4e6f7420656e6f756768207065726d697373696f6e7320746f2073657420636f6044820152651b9cdd185b9d60d21b60648201526084015b60405180910390fd5b60cb5460408051918252602082018390527f8abddb75fd50f7583079c0b550ec7a54fa3fd8d5dd1d2dfdc473f7ce27e3b9ac910160405180910390a160cb55565b6106b76000805160206136ce83398151915233610d19565b6106d35760405162461bcd60e51b81526004016106559061324d565b6000816040516020016106e6919061313e565b60405160208183030381529060405280519060200120905060405160200161071b906613585a5b9b995d60ca1b815260070190565b604051602081830303815290604052805190602001208114156107805760405162461bcd60e51b815260206004820152601960248201527f4d61696e6e65742063616e6e6f742062652072656d6f766564000000000000006044820152606401610655565b61078982611556565b5050565b6107a560008051602061366e83398151915233610d19565b6107c15760405162461bcd60e51b815260040161065590613282565b6001600160a01b0381163b6108185760405162461bcd60e51b815260206004820152601f60248201527f476976656e2061646472657373206973206e6f74206120636f6e7472616374006044820152606401610655565b6001600160a01b03811660009081526000805160206136ae833981519152602052604090205460ff161561085e5760405162461bcd60e51b81526004016106559061335d565b6001600160a01b031660009081526000805160206136ae83398151915260205260409020805460ff19166001179055565b600086866040516020016108a492919061312e565b60408051601f198184030181529181528151602092830120600081815260c990935291206002015490915060ff166109195760405162461bcd60e51b815260206004820152601860248201527710da185a5b881a5cc81b9bdd081a5b9a5d1a585b1a5e995960421b6044820152606401610655565b600a83111561095e5760405162461bcd60e51b8152602060048201526011602482015270546f6f206d616e79206d6573736167657360781b6044820152606401610655565b61097161096b8585611639565b83611744565b6109bd5760405162461bcd60e51b815260206004820152601960248201527f5369676e6174757265206973206e6f74207665726966696564000000000000006044820152606401610655565b600081815260c960205260409020548514610a405760405162461bcd60e51b815260206004820152603860248201527f5374617274696e6720636f756e746572206973206e6f74207175616c20746f2060448201527f696e636f6d696e67206d65737361676520636f756e74657200000000000000006064820152608401610655565b60005b83811015610a9657610a8382868684818110610a6157610a61613587565b9050602002810190610a7391906133e7565b610a7e8960016133fd565b6117f1565b5080610a8e81613516565b915050610a43565b50600081815260c9602052604081208054859290610ab59084906133fd565b909155505050505050505050565b6000808383604051602001610ad992919061312e565b60408051601f198184030181529181528151602092830120600081815260c990935291206002015490915060ff16610b235760405162461bcd60e51b815260040161065590613319565b600090815260c960205260409020600101549392505050565b600054610100900460ff1680610b55575060005460ff16155b610b715760405162461bcd60e51b8152600401610655906132cb565b600054610100900460ff16158015610b93576000805461ffff19166101011790555b610b9b611976565b610ba6600033611a02565b610bbe6000805160206136ce83398151915233611a02565b610bd660008051602061366e83398151915233611a02565b610c007f96e3fc3be15159903e053027cff8a23f39a990e0194abcd8ac1cf1b355b8b93c33611a02565b60cb8290558015610789576000805461ff00191690555050565b6000808383604051602001610c3092919061312e565b60408051601f198184030181529181528151602092830120600081815260c990935291206002015490915060ff16610caa5760405162461bcd60e51b815260206004820152601f60248201527f536f7572636520636861696e206973206e6f7420696e697469616c697a6564006044820152606401610655565b600090815260c960205260409020549392505050565b8051600090815260ce60209081526040808320828501518452909152812054610ce883611a0c565b811415610cf457600191505b50919050565b6000828152609760205260408120610d129083611a78565b9392505050565b60009182526065602090815260408084206001600160a01b0393909316845291905290205460ff1690565b610d4f838383611a84565b60006040518060a00160405280858152602001600160c9600088815260200190815260200160002060010154610d859190613448565b81523360208201526001600160a01b03851660408201526060018390528051909150610db082611a0c565b600082815260ce6020908152604080832060d08084528285208054865291845291842094909455848352905281546001929190610dee9084906133fd565b90915550505050505050565b600060c9600083604051602001610e11919061313e565b60408051601f198184030181529181528151602092830120835290820192909252016000206002015460ff1692915050565b610e5b60008051602061366e83398151915233610d19565b610e775760405162461bcd60e51b815260040161065590613282565b6001600160a01b03811660009081526000805160206136ae833981519152602052604090205460ff16610eec5760405162461bcd60e51b815260206004820181905260248201527f457874726120636f6e7472616374206973206e6f7420726567697374657265646044820152606401610655565b6001600160a01b031660009081526000805160206136ae83398151915260205260409020805460ff19169055565b600081815260976020526040812061058590611bdb565b610f4960008051602061366e83398151915233610d19565b610f655760405162461bcd60e51b815260040161065590613282565b600082604051602001610f78919061313e565b604051602081830303815290604052805190602001209050610fa3826001600160a01b03163b151590565b610fef5760405162461bcd60e51b815260206004820152601f60248201527f476976656e2061646472657373206973206e6f74206120636f6e7472616374006044820152606401610655565b600081815260ca602090815260408083206001600160a01b038616845290915290205460ff16156110325760405162461bcd60e51b81526004016106559061335d565b6001600160a01b03821660009081526000805160206136ae833981519152602052604090205460ff16156110c45760405162461bcd60e51b815260206004820152603360248201527f457874726120636f6e747261637420697320616c7265616479207265676973746044820152726572656420666f7220616c6c20636861696e7360681b6064820152608401610655565b600090815260ca602090815260408083206001600160a01b03909416835292905220805460ff1916600117905550565b6105bc8282611be5565b600060ca6000858560405160200161111792919061312e565b60408051601f19818403018152918152815160209283012083528282019390935290820160009081206001600160a01b0386168252909152205460ff168061118457506001600160a01b03821660009081526000805160206136ae833981519152602052604090205460ff165b949350505050565b600082826040516020016111a192919061312e565b60405160208183030381529060405280519060200120905060cd5481141561120b5760405162461bcd60e51b815260206004820152601c60248201527f53636861696e2063616e6e6f7420636f6e6e65637420697473656c66000000006044820152606401610655565b6105ad81611c0b565b600054610100900460ff168061122d575060005460ff16155b6112495760405162461bcd60e51b8152600401610655906132cb565b600054610100900460ff1615801561126b576000805461ffff19166101011790555b611277622dc6c0610b3c565b60cc80546001600160a01b0385166001600160a01b031990911617905560408051606081018252600080825260208083018290526001838501529251919260c9926112d091016613585a5b9b995d60ca1b815260070190565b60408051808303601f19018152918152815160209283012083528282019390935290820160002083518155838201516001820155928201516002909301805460ff1916931515939093179092555161132a9184910161313e565b60408051601f19818403018152919052805160209091012060cd5580156105ad576000805461ff0019169055505050565b61137360008051602061366e83398151915233610d19565b61138f5760405162461bcd60e51b815260040161065590613282565b6000826040516020016113a2919061313e565b60408051601f198184030181529181528151602092830120600081815260ca84528281206001600160a01b038716825290935291205490915060ff1661142a5760405162461bcd60e51b815260206004820181905260248201527f457874726120636f6e7472616374206973206e6f7420726567697374657265646044820152606401610655565b600090815260ca602090815260408083206001600160a01b03909416835292905220805460ff1916905550565b60006001600160e01b03198216637965db0b60e01b148061058557506301ffc9a760e01b6001600160e01b0319831614610585565b6000828152606560205260409020600101546114a88133611cf1565b6105ad8383611d55565b6000610d12836001600160a01b038416611ddb565b6001600160a01b03811633146115375760405162461bcd60e51b815260206004820152602f60248201527f416363657373436f6e74726f6c3a2063616e206f6e6c792072656e6f756e636560448201526e103937b632b9903337b91039b2b63360891b6064820152608401610655565b6107898282611e2a565b6000610d12836001600160a01b038416611e91565b61156e6000805160206136ce83398151915233610d19565b61158a5760405162461bcd60e51b81526004016106559061324d565b60008160405160200161159d919061313e565b60408051601f198184030181529181528151602092830120600081815260c990935291206002015490915060ff166116125760405162461bcd60e51b815260206004820152601860248201527710da185a5b881a5cc81b9bdd081a5b9a5d1a585b1a5e995960421b6044820152606401610655565b600090815260c9602052604081208181556001810191909155600201805460ff1916905550565b6000606060005b83811015611734578185858381811061165b5761165b613587565b905060200281019061166d91906133e7565b61167b906020810190612c5f565b60601b6001600160601b03191686868481811061169a5761169a613587565b90506020028101906116ac91906133e7565b6116bd906040810190602001612c5f565b60601b6001600160601b0319168787858181106116dc576116dc613587565b90506020028101906116ee91906133e7565b6116fc9060408101906133a1565b6040516020016117109594939291906130f4565b6040516020818303038152906040529150808061172c90613516565b915050611640565b5080516020909101209392505050565b604080518082018252823581526020808401359082015260cc548251632aa77bd360e11b81528351600094610d12949388936080808a013594938a01359360608b0135936001600160a01b03169263554ef7a6926004808301939192829003018186803b1580156117b457600080fd5b505afa1580156117c8573d6000803e3d6000fd5b505050506040513d601f19601f820116820180604052508101906117ec9190612fa0565b611f85565b60006118036040840160208501612c5f565b6001600160a01b031663884cee5a60cb54868660000160208101906118289190612c5f565b61183560408901896133a1565b6040518663ffffffff1660e01b815260040161185494939291906131f3565b602060405180830381600088803b15801561186e57600080fd5b5087f19350505050801561189f575060408051601f3d908101601f1916820190925261189c91810190612c7c565b60015b61196f576118ab6135b3565b806308c379a0141561190d57506118c06135cf565b806118cb575061190f565b827f4b7d3908626050c0d998d657e4e6f31cb43ed736bf2b9a1a0192494537ca0e59826040516118fb919061323a565b60405180910390a26000915050610d12565b505b3d808015611939576040519150601f19603f3d011682016040523d82523d6000602084013e61193e565b606091505b50827f4b7d3908626050c0d998d657e4e6f31cb43ed736bf2b9a1a0192494537ca0e59826040516118fb919061323a565b9050610d12565b600054610100900460ff168061198f575060005460ff16155b6119ab5760405162461bcd60e51b8152600401610655906132cb565b600054610100900460ff161580156119cd576000805461ffff19166101011790555b6119d561214f565b6119dd61214f565b6119e561214f565b6119ed61214f565b80156119ff576000805461ff00191690555b50565b61059582826121b9565b6000808260000151836020015160001b846040015160601b6001600160601b031916856060015160601b6001600160601b0319168660800151604051602001611a599594939291906130b9565b60408051601f1981840301815291905280516020909101209392505050565b6000610d1283836121c3565b600083815260c9602052604090206002015460ff16611ab55760405162461bcd60e51b815260040161065590613319565b3360009081526000805160206136ae833981519152602052604090205460ff1680611af95750600083815260ca6020908152604080832033845290915290205460ff165b611b4f5760405162461bcd60e51b815260206004820152602160248201527f53656e64657220636f6e7472616374206973206e6f74207265676973746572656044820152601960fa1b6064820152608401610655565b336001600160a01b031660c9600085815260200190815260200160002060010154847f803d7f3ca0e5f93fcce39fa29812ed57a95a151594966e17125220132741c6b08585604051611ba29291906131cf565b60405180910390a4600160c960008581526020019081526020016000206001016000828254611bd191906133fd565b9091555050505050565b6000610585825490565b600082815260656020526040902060010154611c018133611cf1565b6105ad8383611e2a565b611c236000805160206136ce83398151915233610d19565b611c3f5760405162461bcd60e51b81526004016106559061324d565b600081815260c9602052604090206002015460ff1615611ca15760405162461bcd60e51b815260206004820152601a60248201527f436861696e20697320616c726561647920636f6e6e65637465640000000000006044820152606401610655565b6040805160608101825260008082526020808301828152600184860181815296845260c9909252939091209151825591519181019190915590516002909101805460ff1916911515919091179055565b611cfb8282610d19565b61078957611d13816001600160a01b03166014612249565b611d1e836020612249565b604051602001611d2f92919061315a565b60408051601f198184030181529082905262461bcd60e51b82526106559160040161323a565b611d5f8282610d19565b6107895760008281526065602090815260408083206001600160a01b03851684529091529020805460ff19166001179055611d973390565b6001600160a01b0316816001600160a01b0316837f2f8788117e7eff1d82e926ec794901d17c78024a50270940304540a733656f0d60405160405180910390a45050565b6000818152600183016020526040812054611e2257508154600181810184556000848152602080822090930184905584548482528286019093526040902091909155610585565b506000610585565b611e348282610d19565b156107895760008281526065602090815260408083206001600160a01b0385168085529252808320805460ff1916905551339285917ff6391f5c32d9c69d2a47ea670b442974b53935d1edc7fd64eb21e047a839171b9190a45050565b60008181526001830160205260408120548015611f74576000611eb5600183613448565b8554909150600090611ec990600190613448565b90506000866000018281548110611ee257611ee2613587565b9060005260206000200154905080876000018481548110611f0557611f05613587565b600091825260208083209091019290925582815260018901909152604090208490558654879080611f3857611f38613571565b60019003818190600052602060002001600090559055866001016000878152602001908152602001600020600090556001945050505050610585565b6000915050610585565b5092915050565b6000611f90876123e4565b611fd55760405162461bcd60e51b815260206004820152601660248201527514da59db985d1d5c99481a5cc81b9bdd081d985b1a5960521b6044820152606401610655565b611fe18686868661241a565b611fed57506000612145565b6000611ffc8860200151612506565b905061200c88600001518261252b565b6120495760405162461bcd60e51b815260206004820152600e60248201526d5369676e206e6f7420696e20473160901b6044820152606401610655565b612053858561252b565b6120905760405162461bcd60e51b815260206004820152600e60248201526d48617368206e6f7420696e20473160901b6044820152606401610655565b600061209a612561565b90506120a584612621565b6120e85760405162461bcd60e51b8152602060048201526014602482015273283ab13634b19025b2bc903737ba1034b710239960611b6044820152606401610655565b6121408960000151838360000151602001518460000151600001518560200151602001518660200151600001518c8c8c60000151602001518d60000151600001518e60200151602001518f6020015160000151612635565b925050505b9695505050505050565b600054610100900460ff1680612168575060005460ff16155b6121845760405162461bcd60e51b8152600401610655906132cb565b600054610100900460ff161580156119ed576000805461ffff191661010117905580156119ff576000805461ff001916905550565b6107898282611d55565b815460009082106122215760405162461bcd60e51b815260206004820152602260248201527f456e756d657261626c655365743a20696e646578206f7574206f6620626f756e604482015261647360f01b6064820152608401610655565b82600001828154811061223657612236613587565b9060005260206000200154905092915050565b60606000612258836002613429565b6122639060026133fd565b6001600160401b0381111561227a5761227a61359d565b6040519080825280601f01601f1916602001820160405280156122a4576020820181803683370190505b509050600360fc1b816000815181106122bf576122bf613587565b60200101906001600160f81b031916908160001a905350600f60fb1b816001815181106122ee576122ee613587565b60200101906001600160f81b031916908160001a9053506000612312846002613429565b61231d9060016133fd565b90505b6001811115612395576f181899199a1a9b1b9c1cb0b131b232b360811b85600f166010811061235157612351613587565b1a60f81b82828151811061236757612367613587565b60200101906001600160f81b031916908160001a90535060049490941c9361238e8161348f565b9050612320565b508315610d125760405162461bcd60e51b815260206004820181905260248201527f537472696e67733a20686578206c656e67746820696e73756666696369656e746044820152606401610655565b600060008051602061368e83398151915282600001511080156105855750506020015160008051602061368e8339815191521190565b6000606484111561242d57506000611184565b600061244760008051602061368e83398151915287613531565b905060008051602061368e83398151915261246286836133fd565b61246c9190613531565b9050600060008051602061368e833981519152600360008051602061368e8339815191528460008051602061368e833981519152868709090890506124c0600260008051602061368e833981519152613415565b8410806124de57508060008051602061368e83398151915285860914155b806124e95750848214155b156124f957600092505050611184565b5060019695505050505050565b600060008051602061368e8339815191526125218382613448565b6105859190613531565b600060008051602061368e833981519152806003818681888909090881806125555761255561355b565b84850914949350505050565b612569612adb565b50604080516080810182527f1800deef121f1e76426a00665e5c4479674322d4f75edadd46debd5cd992f6ed8183019081527f198e9393920d483a7260bfb731fb5d25f1aa493335a9e71297e485b7aef312c26060830152815281518083019092527f12c85ea5db8c6deb4aab71808dcb408fe3d1e7690c43d37b4ce6cc0166fa7daa82527f090689d0585ff075ec9e99ad690c3395bc4b313370b38ef355acdadcd122975b60208381019190915281019190915290565b600061058582600001518360200151612705565b600080612640612b1f565b8e8152602081018e9052604081018d9052606081018c9052608081018b905260a081018a905260c0810189905260e08101889052610100810187905261012081018690526101408101859052610160810184905261269c612b3e565b602081610180846008600019fa9250826126ef5760405162461bcd60e51b815260206004820152601460248201527314185a5c9a5b99c818da1958dac819985a5b195960621b6044820152606401610655565b5115159f9e505050505050505050505050505050565b600061271183836127d9565b1561271e57506001610585565b60006127298361280c565b905060006127bc612799604080518082018252600080825260209182015281518083019092527f2b149d40ceb8aaae81be18991be06ac3b5b4c5e559dbefa33267e6dc24a138e582527e9713b03af0fed4cd2cafadeed8fdf4a74fa084e52d1852e4a2bd0685c315d29082015290565b6127b66127af886127a98a61280c565b906128c2565b85906129d5565b906129d5565b80519091501580156127d057506020810151155b95945050505050565b81516000901580156127ed57506020830151155b80156127fa575081516001145b8015610d125750506020015115919050565b604080518082019091526000808252602082015260008051602061368e833981519152600081602085015185510990506000828061284c5761284c61355b565b838061285a5761285a61355b565b84806128685761286861355b565b6020880151612878600188613448565b09875108848061288a5761288a61355b565b6020880151885108099050604051806040016040528082815260200184806128b4576128b461355b565b848508905295945050505050565b6040805180820190915260008082526020820152600060008051602061368e83398151915290506000604051806040016040528083806129045761290461355b565b86518851098152602001838061291c5761291c61355b565b86602001518860200151099052905081806129395761293961355b565b82806129475761294761355b565b6020830151612957600186613448565b098251088352818061296b5761296b61355b565b82806129795761297961355b565b602083015183510861298b9084613448565b83806129995761299961355b565b84806129a7576129a761355b565b602088015188510885806129bd576129bd61355b565b60208a01518a51080908602084015250909392505050565b60408051808201909152600080825260208201528151835160008051602061368e8339815191529111612a26578080612a1057612a1061355b565b8351612a1c9083613448565b8551088252612a5b565b808180612a3557612a3561355b565b8551612a419084613448565b855108612a4e9083613448565b612a589190613531565b82525b8260200151846020015110612a97578080612a7857612a7861355b565b6020840151612a879083613448565b8560200151086020830152611f7e565b808180612aa657612aa661355b565b6020860151612ab59084613448565b856020015108612ac59083613448565b612acf9190613531565b60208301525092915050565b60408051608081018252600091810182815260608201929092529081908152602001612b1a604051806040016040528060008152602001600081525090565b905290565b604051806101800160405280600c906020820280368337509192915050565b60405180602001604052806001906020820280368337509192915050565b600082601f830112612b6d57600080fd5b81356001600160401b03811115612b8657612b8661359d565b604051612b9d601f8301601f1916602001826134ea565b818152846020838601011115612bb257600080fd5b816020850160208301376000918101602001919091529392505050565b60008083601f840112612be157600080fd5b5081356001600160401b03811115612bf857600080fd5b602083019150836020828501011115612c1057600080fd5b9250929050565b600060408284031215612c2957600080fd5b604051612c35816134a6565b80915082518152602083015160208201525092915050565b600060a08284031215610cf457600080fd5b600060208284031215612c7157600080fd5b8135610d1281613658565b600060208284031215612c8e57600080fd5b8151610d1281613658565b600060208284031215612cab57600080fd5b5035919050565b60008060408385031215612cc557600080fd5b823591506020830135612cd781613658565b809150509250929050565b600080600060608486031215612cf757600080fd5b833592506020840135612d0981613658565b915060408401356001600160401b03811115612d2457600080fd5b612d3086828701612b5c565b9150509250925092565b60008060408385031215612d4d57600080fd5b50508035926020909101359150565b600060208284031215612d6e57600080fd5b81356001600160e01b031981168114610d1257600080fd5b60008060408385031215612d9957600080fd5b8235612da481613658565b915060208301356001600160401b03811115612dbf57600080fd5b612dcb85828601612b5c565b9150509250929050565b60008060208385031215612de857600080fd5b82356001600160401b03811115612dfe57600080fd5b612e0a85828601612bcf565b90969095509350505050565b600080600060408486031215612e2b57600080fd5b83356001600160401b03811115612e4157600080fd5b612e4d86828701612bcf565b9094509250506020840135612e6181613658565b809150509250925092565b6000806000806000806101008789031215612e8657600080fd5b86356001600160401b0380821115612e9d57600080fd5b612ea98a838b01612bcf565b9098509650602089013595506040890135915080821115612ec957600080fd5b818901915089601f830112612edd57600080fd5b813581811115612eec57600080fd5b8a60208260051b8501011115612f0157600080fd5b602083019550809450505050612f1a8860608901612c4d565b90509295509295509295565b600060208284031215612f3857600080fd5b81356001600160401b03811115612f4e57600080fd5b61118484828501612b5c565b60008060408385031215612f6d57600080fd5b82356001600160401b03811115612f8357600080fd5b612f8f85828601612b5c565b9250506020830135612cd781613658565b600060808284031215612fb257600080fd5b604051612fbe816134a6565b612fc88484612c17565b8152612fd78460408501612c17565b60208201529392505050565b600060208284031215612ff557600080fd5b81356001600160401b038082111561300c57600080fd5b9083019060a0828603121561302057600080fd5b60405161302c816134cb565b8235815260208301356020820152604083013561304881613658565b6040820152606083013561305b81613658565b606082015260808301358281111561307257600080fd5b61307e87828601612b5c565b60808301525095945050505050565b600081518084526130a581602086016020860161345f565b601f01601f19169290920160200192915050565b858152846020820152836040820152826060820152600082516130e381608085016020870161345f565b919091016080019695505050505050565b60008651613106818460208b0161345f565b8201868152602081018690528385604083013760009301604001928352509095945050505050565b8183823760009101908152919050565b6000825161315081846020870161345f565b9190910192915050565b7f416363657373436f6e74726f6c3a206163636f756e742000000000000000000081526000835161319281601785016020880161345f565b7001034b99036b4b9b9b4b733903937b6329607d1b60179184019182015283516131c381602884016020880161345f565b01602801949350505050565b6001600160a01b03831681526040602082018190526000906111849083018461308d565b8481526001600160a01b03841660208201526060604082018190528101829052818360808301376000818301608090810191909152601f909201601f191601019392505050565b602081526000610d12602083018461308d565b6020808252818101527f434841494e5f434f4e4e4543544f525f524f4c45206973207265717569726564604082015260600190565b60208082526029908201527f45585452415f434f4e54524143545f5245474953545241525f524f4c45206973604082015268081c995c5d5a5c995960ba1b606082015260800190565b6020808252602e908201527f496e697469616c697a61626c653a20636f6e747261637420697320616c72656160408201526d191e481a5b9a5d1a585b1a5e995960921b606082015260800190565b60208082526024908201527f44657374696e6174696f6e20636861696e206973206e6f7420696e697469616c6040820152631a5e995960e21b606082015260800190565b60208082526024908201527f457874726120636f6e747261637420697320616c726561647920726567697374604082015263195c995960e21b606082015260800190565b6000808335601e198436030181126133b857600080fd5b8301803591506001600160401b038211156133d257600080fd5b602001915036819003821315612c1057600080fd5b60008235605e1983360301811261315057600080fd5b6000821982111561341057613410613545565b500190565b6000826134245761342461355b565b500490565b600081600019048311821515161561344357613443613545565b500290565b60008282101561345a5761345a613545565b500390565b60005b8381101561347a578181015183820152602001613462565b83811115613489576000848401525b50505050565b60008161349e5761349e613545565b506000190190565b604081018181106001600160401b03821117156134c5576134c561359d565b60405250565b60a081018181106001600160401b03821117156134c5576134c561359d565b601f8201601f191681016001600160401b038111828210171561350f5761350f61359d565b6040525050565b600060001982141561352a5761352a613545565b5060010190565b6000826135405761354061355b565b500690565b634e487b7160e01b600052601160045260246000fd5b634e487b7160e01b600052601260045260246000fd5b634e487b7160e01b600052603160045260246000fd5b634e487b7160e01b600052603260045260246000fd5b634e487b7160e01b600052604160045260246000fd5b600060033d11156135cc5760046000803e5060005160e01c5b90565b600060443d10156135dd5790565b6040516003193d81016004833e81513d6001600160401b03816024840111818411171561360c57505050505090565b82850191508151818111156136245750505050505090565b843d870101602082850101111561363e5750505050505090565b61364d602082860101876134ea565b509095945050505050565b6001600160a01b03811681146119ff57600080fdfe6155b5aac15ce9aa193c0527a6f43be0a36a7e2e7496c2b615c0e5f92284277330644e72e131a029b85045b68181585d97816a916871ca8d3c208c16d87cfd47992e0e3e7050db88ec37ec33505f46a9813ea5551fe17ef58dc201344bcbaf932785f35fe7d8743aa971942d8474737bb31895d396eff2cc688a481e0221e191a2646970667358221220a7f4529a9a7c89fd2e544e9ea19c676501311efda5e7604e9fccde5487bedb0b64736f6c63430008060033",
  "linkReferences": {},
  "deployedLinkReferences": {}
}